:100000000C942A000C9476020C949D020C94C40269
:100010000C9447000C9447000C9447000C94470044
:100020000C9447000C9447000C9447000C94470034
:100030000C9447000C9447000C9447000C94470024
:100040000C9447000C9447000C9447000C94470014
:100050000C94470011241FBECFE5D8E0DEBFCDBF12
:1000600011E0A0E6B0E0E6EDFCE002C005900D92E4
:10007000AE33B107D9F721E0AEE3B1E001C01D9284
:10008000AC34B207E1F70E94F8050C9469060C94B1
:100090000000823019F118F4813039F0089583306E
:1000A000B1F1843009F44CC00895413059F42AB3B9
:1000B00081E090E002C0880F991F6A95E2F7822BD9
:1000C0008ABB08952AB381E090E002C0880F991F8F
:1000D0006A95E2F7809582238ABB0895413059F4EE
:1000E00027B381E090E002C0880F991F6A95E2F77C
:1000F000822B87BB089527B381E090E002C0880F70
:10010000991F6A95E2F78095822387BB0895413055
:1001100059F424B381E090E002C0880F991F6A95DA
:10012000E2F7822B84BB089524B381E090E002C003
:10013000880F991F6A95E2F78095822384BB089502
:10014000413059F421B381E090E002C0880F991F3B
:100150006A95E2F7822B81BB089521B381E090E09C
:1001600002C0880F991F6A95E2F78095822381BBB0
:100170000895823019F118F4813039F008958330F0
:10018000B1F1843009F44CC00895413059F42BB3D7
:1001900081E090E002C0880F991F6A95E2F7822BF8
:1001A0008BBB08952BB381E090E002C0880F991FAC
:1001B0006A95E2F7809582238BBB0895413059F40C
:1001C00028B381E090E002C0880F991F6A95E2F79A
:1001D000822B88BB089528B381E090E002C0880F8D
:1001E000991F6A95E2F78095822388BB0895413074
:1001F00059F425B381E090E002C0880F991F6A95F9
:10020000E2F7822B85BB089525B381E090E002C020
:10021000880F991F6A95E2F78095822385BB089520
:10022000413059F422B381E090E002C0880F991F59
:100230006A95E2F7822B82BB089522B381E090E0B9
:1002400002C0880F991F6A95E2F78095822382BBCE
:100250000895823099F018F4813031F02CC0833049
:10026000B9F08430F9F027C089B390E002C09595C9
:1002700087956A95E2F7982F91701DC086B390E03C
:1002800002C0959587956A95E2F7982F917013C0F3
:1002900083B390E002C0959587956A95E2F7982F11
:1002A000917009C080B390E002C0959587956A95DA
:1002B000E2F7982F9170892F08958230A1F018F4F9
:1002C000813031F008958330C9F0843011F1089500
:1002D000613019F48FEF8ABB0895611102C01ABA18
:1002E00008956ABB0895613019F48FEF87BB0895B4
:1002F000611102C017BA089567BB0895613019F4FF
:100300008FEF84BB0895611102C014BA089564BBD5
:100310000895613019F48FEF81BB0895611102C017
:1003200011BA089561BB08958230A1F018F48130AC
:1003300031F008958330C9F0843011F108956130AF
:1003400019F48FEF8BBB0895611102C01BBA089599
:100350006BBB0895613019F48FEF88BB089561116C
:1003600002C018BA089568BB0895613019F48FEF80
:1003700085BB0895611102C015BA089565BB089543
:10038000613019F48FEF82BB0895611102C012BA77
:10039000089562BB08958230C9F018F4813031F0BD
:1003A0000895833019F1843089F10895613039F46A
:1003B0006AB3407F6F70642B0E945D0108956AB339
:1003C0004F70607F642B0E945D010895613039F4A5
:1003D00067B3407F6F70642B0E945D01089567B31F
:1003E0004F70607F642B0E945D010895613039F485
:1003F00064B3407F6F70642B0E945D01089564B305
:100400004F70607F642B0E945D010895613039F464
:1004100061B3407F6F70642B0E945D01089561B3EA
:100420004F70607F642B0E945D0108958230C9F097
:1004300018F4813031F00895833019F1843089F156
:100440000895613039F46BB3407F6F70642B0E9464
:10045000940108956BB34F70607F642B0E949401E8
:100460000895613039F468B3407F6F70642B0E9447
:100470009401089568B34F70607F642B0E949401CB
:100480000895613039F465B3407F6F70642B0E942A
:100490009401089565B34F70607F642B0E949401AE
:1004A0000895613039F462B3407F6F70642B0E940D
:1004B0009401089562B34F70607F642B0E94940191
:1004C000089593709FBB8EBB6DBB8CB384608CBB57
:1004D0008CB382608CBBE199FECF089593709FBB73
:1004E0008EBB8CB381608CBB8DB308951F920F922D
:1004F0000FB60F9211242F933F934F935F936F93F7
:100500007F938F939F93AF93BF93EF93FF93E0916C
:100510004201F09143010995FF91EF91BF91AF9195
:100520009F918F917F916F915F914F913F912F910B
:100530000F900FBE0F901F9018951F920F920FB63D
:100540000F9211242F933F934F935F936F937F9359
:100550008F939F93AF93BF93EF93FF93E0914401E9
:10056000F09145010995FF91EF91BF91AF919F9156
:100570008F917F916F915F914F913F912F910F904C
:100580000FBE0F901F9018951F920F920FB60F92EB
:1005900011242F933F934F935F936F937F938F9388
:1005A0009F93AF93BF93EF93FF93E0914001F0913E
:1005B00041010995FF91EF91BF91AF919F918F916B
:1005C0007F916F915F914F913F912F910F900FBE4F
:1005D0000F901F901895CF93C82F81E0611101C033
:1005E00080E08093470191E0611190E09093460193
:1005F00041E0682F8C2F0E94CB0140E060914601C2
:100600008C2F0E94CB0141E0609146018C2F0E940B
:100610001602CF910895DF92EF92FF920F931F93EE
:10062000CF93DF93CDB7DEB760970FB6F894DEBFF8
:100630000FBECDBF082F80E1E0E6F0E0DE011196AD
:1006400001900D928A95E1F7E12C0F2EF6E4FF2E32
:10065000F02D0F2EF6E4DF2EF02D39C041E060E0E2
:10066000802F0E94B90041E061E0802F0E94B90014
:1006700041E062E0802F0E94B90041E063E0802FFA
:100680000E94B90040E06E2D802F0E94B90010E05A
:1006900019C064E0610F802F0E942901F82E81119A
:1006A00010C0EE2DF0E0EE0FFF1FEE0FFF1F81E0F8
:1006B00090E08C0F9D1FE80FF91FE10FF11DD08016
:1006C00003C01F5F143028F3FF2021F0E39493E070
:1006D0009E1520F68D2D60960FB6F894DEBF0FBEE6
:1006E000CDBFDF91CF911F910F91FF90EF90DF90E1
:1006F000089541E066E081E00E94B9008FE39CE943
:100700000197F1F700C0000040E066E081E00E9440
:10071000B9000895CF93C82F40E065E081E00E94C2
:10072000B9004C2F42954F7060E081E00E941602A4
:100730000E9479034C2F60E081E00E94160266E07F
:1007400070E081E090E00E947903CF9108952FEF4F
:1007500083EC99E0215080409040E1F700C0000018
:1007600041E060E081E00E94CB0141E065E081E092
:100770000E94490041E062E081E00E94490041E0BE
:1007800066E081E00E94490082E00E948A032FEF28
:1007900080E792E0215080409040E1F700C00000E7
:1007A00088E20E948A038FE39FE10197F1F700C07E
:1007B00000008EE00E948A038FE39FE10197F1F72A
:1007C00000C0000081E00E948A038FE39FE101974F
:1007D000F1F700C0000080E10E948A038FE39FE1EF
:1007E0000197F1F700C000000895CF93C82F41E0B2
:1007F00065E081E00E94B9004C2F42954F7060E0A7
:1008000081E00E9416020E9479034C2F60E081E093
:100810000E94160266E070E081E090E00E94790399
:10082000CF910895CF93DF93EC0103C00E94F503AD
:10083000219688818111FACFDF91CF91089581E0CF
:100840000E948A0382E00E948A0380E790E00E946F
:10085000120480EC0E948A0381E890E00E94120456
:100860002FEF89E698E1215080409040E1F700C0E9
:100870000000089563E483E090E00E94610208951F
:10088000EF92FF920F931F93CF93DF9300D000D08E
:10089000CDB7DEB781E00E948A0382E00E948A031E
:1008A00010E004E00FC0E12EF12C802F90E00E94B8
:1008B0006E02E1E0F0E0EC0FFD1FEE0DFF1D808306
:1008C0000F5F1F5F143078F320E010C0822F90E09C
:1008D000E1E0F0E0EC0FFD1FE80FF91F3081FC01B3
:1008E000E85BFE4F8081381305C02F5F243070F322
:1008F00081E001C080E00F900F900F900F90DF918A
:10090000CF911F910F91FF90EF9008950F931F9338
:10091000CF93DF938C01C0E0D4E00AC0F801EC0F64
:10092000F11D60818D2F90E00E946102DF5FCF5F3B
:10093000C430A0F3DF91CF911F910F910895FF92E2
:100940000F931F93CF93DF9300D000D0CDB7DEB7C6
:100950006FEF80E090E00E94610281E00E948A03D4
:1009600082E00E948A038EE890E00E94120480ECEC
:100970000E948A03F12C20C00F2D10E084E00E9419
:100980000B03E1E0F0E0EC0FFD1FE00FF11F8083AF
:10099000863491F30E94F5032FEF81EE94E021500D
:1009A00080409040E1F700C0000080E10E948A038F
:1009B0008AE20E94F503F39423E02F15E8F6CE01B6
:1009C00001960E94860460E580E090E00E9461024A
:1009D00081E00E948A0382E00E948A038DE990E010
:1009E0000E9412048FEF94E32CE08150904020404D
:1009F000E1F700C000000F900F900F900F90DF9173
:100A0000CF911F910F91FF9008951F93CF93DF9384
:100A100081E00E948A0382E00E948A038DEA90E0CE
:100A20000E94120480EC0E948A0310E01CC0C12FB7
:100A3000D0E084E00E940B03C85BDE4F88838634DD
:100A4000B1F30E94F5032FEF81EE94E02150804036
:100A50009040E1F700C0000080E10E948A038AE232
:100A60000E94F5031F5F143010F30E944004DF91D1
:100A7000CF911F91089580E090E00E946E0208954A
:100A800081E090E00E946E02089581E00E948A0356
:100A900082E00E948A038EEB90E00E94120480ECB8
:100AA0000E948A0387EC90E00E94120460E583E0D4
:100AB00090E00E946102089581E00E948A0382E032
:100AC0000E948A0385ED90E00E94120463E483E0B3
:100AD00090E00E9461020895CF936FEF81E090E073
:100AE0000E94610281E00E948A0382E00E948A03E0
:100AF00083EE90E00E94120480EC0E948A0384E05E
:100B00000E940B03C82F8634D1F30E94F5036C2F8B
:100B100082E090E00E94610264E581E090E00E9442
:100B200061022FEF84E39CE0215080409040E1F788
:100B300000C0000081E00E948A0382E00E948A03D4
:100B40008FEE90E00E9412042FEF84E39CE021508E
:100B500080409040E1F700C00000CF91089582E00E
:100B600090E00E946E020895CF9382E090E00E9490
:100B70006E02CFEFC80F6C2F82E090E00E946102FE
:100B800081E00E948A0382E00E948A038FEF90E056
:100B90000E94120480EC0E948A0380E191E00E948E
:100BA00012048C2F0E94F5032FEF84E39CE0215068
:100BB00080409040E1F700C00000CF91089581E0AF
:100BC00080933E010E948A0382E00E948A038CE1A6
:100BD00091E00E94120480EC0E948A038DE291E071
:100BE0000E94120484E00E940B038634D9F3089516
:100BF000CF93DF930E94A70341E060E084E00E946E
:100C0000EB020E941F040E943B05D82F0E94400562
:100C1000C82F80913F01811102C00E943A04D03553
:100C200011F00E949F04C43511F00E946C050E94CF
:100C3000AF05803329F410923F010E945C0512C079
:100C400080913E0181110EC00E940505813039F46A
:100C500080933F0180933E010E94450503C00E949E
:100C6000B405E5CF80913F01811104C080913E0120
:100C7000882351F12FE78FE492E12150804090408A
:100C8000E1F700C000000E94DF05823361F083338A
:100C9000C1F0813309F0B7CF0E943A040E949F044B
:100CA00010923E01B0CF0E945C0510923E012FEFE2
:100CB00081EE94E0215080409040E1F700C00000B8
:100CC000A2CF0E946C059FCF80E090E0DF91CF9192
:060CD0000895F894FFCF27
:100CD6003738392F3435362A3132332D43303D2BD0
:100CE600546869732069732054686520536166658A
:100CF600004465762E204279204162646F00536578
:100D0600742050617373776F7264203A0050617378
:100D160073776F726420536574203A2900436865BF
:100D2600636B2050617373776F7264203A00486575
:100D36006C6C6F203A290053616665204F70656EB2
:100D460065642021005361666520436C6F7365649A
:100D560020210054727920436F756E74203A005436
:100D66007279436F756E7420536574203A29005763
:100D7600726F6E672050617373776F726420210003
:100D8600547279204C656674203A2000315F5265B2
:100D96007365742020325F436C6F736500335F5256
:0E0DA6006573657420547279436F756E740026
:00000001FF
