:100000000C942A000C943F000C943F000C943F0089
:100010000C943F000C943F000C943F000C943F0064
:100020000C943F000C943F000C943F000C943F0054
:100030000C943F000C943F000C943F000C943F0044
:100040000C943F000C943F000C943F000C943F0034
:100050000C943F0011241FBECFE5D8E0DEBFCDBF1A
:1000600010E0A0E6B0E0E2EDFFE002C005900D92E6
:10007000AA36B107D9F70E9444030C94E7070C9401
:1000800000009AB321E030E0082E02C0220F331F97
:100090000A94E2F7209529232ABB97B1907E97B95D
:1000A00097B1892B87B986B1887F86B986B186607A
:1000B00086B987B1806887B987B1806487B987B10D
:1000C0008F7D87B986B1806886B9089586B18064CE
:1000D00086B9349BFECF86B1806186B924B185B1E3
:1000E00090E0982F8827822B0895823019F118F418
:1000F000813039F008958330B1F1843009F44CC077
:100100000895413059F42AB381E090E002C0880F8D
:10011000991F6A95E2F7822B8ABB08952AB381E082
:1001200090E002C0880F991F6A95E2F780958223BC
:100130008ABB0895413059F427B381E090E002C0B2
:10014000880F991F6A95E2F7822B87BB089527B322
:1001500081E090E002C0880F991F6A95E2F78095D0
:10016000822387BB0895413059F424B381E090E0A5
:1001700002C0880F991F6A95E2F7822B84BB08950D
:1001800024B381E090E002C0880F991F6A95E2F7DE
:100190008095822384BB0895413059F421B381E0D6
:1001A00090E002C0880F991F6A95E2F7822B81BB0D
:1001B000089521B381E090E002C0880F991F6A95ED
:1001C000E2F78095822381BB0895823019F118F4FB
:1001D000813039F008958330B1F1843009F44CC096
:1001E0000895413059F42BB381E090E002C0880FAC
:1001F000991F6A95E2F7822B8BBB08952BB381E0A0
:1002000090E002C0880F991F6A95E2F780958223DB
:100210008BBB0895413059F428B381E090E002C0CF
:10022000880F991F6A95E2F7822B88BB089528B33F
:1002300081E090E002C0880F991F6A95E2F78095EF
:10024000822388BB0895413059F425B381E090E0C2
:1002500002C0880F991F6A95E2F7822B85BB08952B
:1002600025B381E090E002C0880F991F6A95E2F7FC
:100270008095822385BB0895413059F422B381E0F3
:1002800090E002C0880F991F6A95E2F7822B82BB2B
:10029000089522B381E090E002C0880F991F6A950B
:1002A000E2F78095822382BB08958230A1F018F492
:1002B000813031F008958330C9F0843011F1089510
:1002C000613019F48FEF8ABB0895611102C01ABA28
:1002D00008956ABB0895613019F48FEF87BB0895C4
:1002E000611102C017BA089567BB0895613019F40F
:1002F0008FEF84BB0895611102C014BA089564BBE6
:100300000895613019F48FEF81BB0895611102C027
:1003100011BA089561BB08958230A1F018F48130BC
:1003200031F008958330C9F0843011F108956130BF
:1003300019F48FEF8BBB0895611102C01BBA0895A9
:100340006BBB0895613019F48FEF88BB089561117C
:1003500002C018BA089568BB0895613019F48FEF90
:1003600085BB0895611102C015BA089565BB089553
:10037000613019F48FEF82BB0895611102C012BA87
:10038000089562BB08958230C9F018F4813031F0CD
:100390000895833019F1843089F10895613039F47A
:1003A0006AB3407F6F70642B0E94550108956AB351
:1003B0004F70607F642B0E9455010895613039F4BD
:1003C00067B3407F6F70642B0E945501089567B337
:1003D0004F70607F642B0E9455010895613039F49D
:1003E00064B3407F6F70642B0E945501089564B31D
:1003F0004F70607F642B0E9455010895613039F47D
:1004000061B3407F6F70642B0E945501089561B302
:100410004F70607F642B0E94550108958230C9F0AF
:1004200018F4813031F00895833019F1843089F166
:100430000895613039F46BB3407F6F70642B0E9474
:100440008C0108956BB34F70607F642B0E948C0108
:100450000895613039F468B3407F6F70642B0E9457
:100460008C01089568B34F70607F642B0E948C01EB
:100470000895613039F465B3407F6F70642B0E943A
:100480008C01089565B34F70607F642B0E948C01CE
:100490000895613039F462B3407F6F70642B0E941D
:1004A0008C01089562B34F70607F642B0E948C01B1
:1004B000089541E066E084E00E94E5008FE39CE956
:1004C0000197F1F700C0000040E066E084E00E9480
:1004D000E5000895CF93C82F40E065E084E00E94D6
:1004E000E5004C2F42954F7060E084E00E940E02C0
:1004F0000E9459024C2F60E084E00E940E0266E0E8
:1005000070E084E090E00E945902CF9108952FEFAF
:1005100083EC99E0215080409040E1F700C000005A
:1005200041E060E084E00E94C30141E065E084E0D6
:100530000E94750041E062E084E00E94750041E0A5
:1005400066E084E00E94750082E00E946A022FEF5C
:1005500080E792E0215080409040E1F700C0000029
:1005600088E20E946A028FE39FE10197F1F700C0E1
:1005700000008EE00E946A028FE39FE10197F1F78D
:1005800000C0000081E00E946A028FE39FE10197B2
:10059000F1F700C0000080E10E946A028FE39FE152
:1005A0000197F1F700C000000895CF93C82F41E0F4
:1005B00065E084E00E94E5004C2F42954F7060E0BA
:1005C00084E00E940E020E9459024C2F60E084E0F9
:1005D0000E940E0266E070E084E090E00E94590202
:1005E000CF910895CF93DF93EC0103C00E94D50211
:1005F000219688818111FACFDF91CF9108950F93D1
:100600001F93CF93DF93CDB7DEB764970FB6F894FF
:10061000DEBF0FBECDBF9F938F937F936F9380E616
:1006200090E09F938F938E010F5F1F4F1F930F9347
:100630000E94FD04C8010E94F2020FB6F894DEBFCA
:100640000FBECDBF64960FB6F894DEBF0FBECDBF10
:10065000DF91CF911F910F9108950E946600BC0118
:1006600080E090E00E94020420E030E040E255E4A7
:100670000E94900420E030E040E256E40E946103D2
:100680000E94D303862F08950E94870284E00E946F
:10069000410081E00E946A020E942D03C82F682F4A
:1006A00070E080E090E00E94FF0287E690E00E9408
:1006B000F2028FED0E94D5020E942D03C817E1F3CC
:1006C000E8CF0E9475030C9456040E944F0458F022
:1006D0000E94480440F029F45F3F29F00C943F0445
:1006E00051110C948A040C9445040E94670468F329
:1006F0009923B1F3552391F3951B550BBB27AA27DB
:1007000062177307840738F09F5F5F4F220F331F14
:10071000441FAA1FA9F335D00E2E3AF0E0E832D0DC
:1007200091505040E695001CCAF72BD0FE2F29D0DF
:10073000660F771F881FBB1F261737074807AB07B1
:10074000B0E809F0BB0B802DBF01FF2793585F4F26
:100750003AF09E3F510578F00C943F040C948A04C3
:100760005F3FE4F3983ED4F3869577956795B79508
:10077000F7959F5FC9F7880F911D9695879597F913
:100780000895E1E0660F771F881FBB1F621773078C
:100790008407BA0720F0621B730B840BBA0BEE1FA1
:1007A00088F7E09508950E946F0488F09F5798F0AD
:1007B000B92F9927B751B0F0E1F0660F771F881F66
:1007C000991F1AF0BA95C9F714C0B13091F00E9480
:1007D0008904B1E008950C948904672F782F882745
:1007E000B85F39F0B93FCCF3869577956795B395A7
:1007F000D9F73EF490958095709561957F4F8F4F16
:100800009F4F0895E89409C097FB3EF4909580951A
:10081000709561957F4F8F4F9F4F9923A9F0F92FC6
:1008200096E9BB279395F695879577956795B79544
:10083000F111F8CFFAF4BB0F11F460FF1BC06F5F2A
:100840007F4F8F4F9F4F16C0882311F096E911C03C
:10085000772321F09EE8872F762F05C0662371F05D
:1008600096E8862F70E060E02AF09A95660F771F71
:10087000881FDAF7880F9695879597F9089597F965
:100880009F6780E870E060E008959FEF80EC089536
:1008900000240A941616170618060906089500245F
:1008A0000A9412161306140605060895092E0394D9
:1008B000000C11F4882352F0BB0F40F4BF2B11F44D
:1008C00060FF04C06F5F7F4F8F4F9F4F089557FDAC
:1008D0009058440F551F59F05F3F71F04795880FAE
:1008E00097FB991F61F09F3F79F087950895121645
:1008F00013061406551FF2CF4695F1DF08C01616F1
:1009000017061806991FF1CF8695710561050894A1
:100910000895E894BB2766277727CB0197F90895B8
:100920000E94A3040C9456040E94480438F00E94CC
:100930004F0420F0952311F00C943F040C944504CF
:1009400011240C948A040E94670470F3959FC1F3EC
:10095000950F50E0551F629FF001729FBB27F00D6D
:10096000B11D639FAA27F00DB11DAA1F649F6627C2
:10097000B00DA11D661F829F2227B00DA11D621F11
:10098000739FB00DA11D621F839FA00D611D221FCB
:10099000749F3327A00D611D231F849F600D211DAF
:1009A000822F762F6A2F11249F5750409AF0F1F032
:1009B00088234AF0EE0FFF1FBB1F661F771F881F9B
:1009C00091505040A9F79E3F510580F00C943F0490
:1009D0000C948A045F3FE4F3983ED4F386957795B0
:1009E0006795B795F795E7959F5FC1F7FE2B880F41
:1009F000911D9695879597F90895AEE0B0E0E3E0F4
:100A0000F5E00C94BE070D891E8986E08C831A835D
:100A100009838FEF9FE79E838D83AE01475E5F4F13
:100A20006F89788DCE0101960E941F05EF81F885B0
:100A3000E00FF11F10822E96E4E00C94DA07ABE091
:100A4000B0E0E5E2F5E00C94B0076C017B018A01AF
:100A5000FC0117821682838181FFCCC1CE010196F1
:100A60003C01F6019381F70193FD859193FF8191FC
:100A70007F01882309F4BAC1853239F493FD859149
:100A800093FF81917F01853229F4B60190E00E94A5
:100A90001607E7CF912C212C312CFFE1F315D8F06C
:100AA0008B3279F038F4803279F08332A1F4232D3F
:100AB00020611DC08D3261F0803369F4232D2160E7
:100AC00016C0832D8260382EE32DE4603E2E2AC0AE
:100AD000F32DF8601DC037FC2DC020ED280F2A3003
:100AE00040F08E32B9F436FC81C1232D2064322EC1
:100AF00019C036FE06C08AE0989E200D1124922E61
:100B000011C0EAE02E9E200D1124222EF32DF0625A
:100B10003F2E08C08C3621F4832D8068382E02C009
:100B2000883641F4F70193FD859193FF81917F0110
:100B30008111B3CF982F9F7D9554933028F40C5F8B
:100B40001F4F9FE399830DC0833631F0833771F0D7
:100B5000833509F059C021C0F801808189830E5F77
:100B60001F4F88248394912C530113C02801F2E075
:100B70004F0E511CF801A080B18036FE03C0692DD4
:100B800070E002C06FEF7FEFC5010E940B074C01C0
:100B90008201F32DFF773F2E16C0280122E0420E7E
:100BA000511CF801A080B18036FE03C0692D70E0B1
:100BB00002C06FEF7FEFC5010E9400074C01F32DCB
:100BC000F0683F2E820133FC1BC0822D90E0881616
:100BD0009906B0F4B60180E290E00E9416072A94CC
:100BE000F4CFF50137FC859137FE81915F01B601A5
:100BF00090E00E94160721102A9421E0821A9108A1
:100C00008114910471F7E8C0843611F0893641F5FA
:100C1000F80137FE07C060817181828193810C5F8A
:100C20001F4F08C060817181072E000C880B990B43
:100C30000E5F1F4FF32DFF763F2E97FF09C0909553
:100C40008095709561957F4F8F4F9F4FF0683F2E35
:100C50002AE030E0A3010E945207882E861845C082
:100C6000853731F4232D2F7EB22E2AE030E025C0C7
:100C7000932D997FB92E8F36C1F018F4883579F00D
:100C8000B5C0803719F0883721F0B0C0E92FE06196
:100C9000BE2EB4FE0DC0FB2DF460BF2E09C034FE85
:100CA0000AC0292F2660B22E06C028E030E005C019
:100CB00020E130E002C020E132E0F801B7FE07C0D9
:100CC00060817181828193810C5F1F4F06C06081BA
:100CD000718180E090E00E5F1F4FA3010E945207D8
:100CE000882E8618FB2DFF773F2E36FE0DC0232D54
:100CF0002E7FA22E891458F434FE0BC032FC09C09A
:100D0000832D8E7EA82E05C0B82CA32C03C0B82C32
:100D100001C0B92CA4FE0FC0FE01E80DF11D8081B9
:100D2000803321F49A2D997EA92E09C0A2FE06C017
:100D3000B394B39404C08A2D867809F0B394A3FCCD
:100D400011C0A0FE06C0B21488F4280C922C9B1887
:100D50000EC0B21460F4B60180E290E00E94160763
:100D6000B394F7CFB21418F42B1802C0982C212C8E
:100D7000A4FE10C0B60180E390E00E941607A2FE18
:100D800017C0A1FC03C088E790E002C088E590E0AE
:100D9000B6010CC08A2D867859F0A1FE02C08BE204
:100DA00001C080E2A7FC8DE2B60190E00E94160728
:100DB000891438F4B60180E390E00E9416079A94F3
:100DC000F7CF8A94F301E80DF11D8081B60190E020
:100DD0000E9416078110F5CF222009F442CEB601F9
:100DE00080E290E00E9416072A94F6CFF6018681F1
:100DF000978102C08FEF9FEF2B96E2E10C94CC0716
:100E0000FC010590615070400110D8F780959095D5
:100E10008E0F9F1F0895FC016150704001900110DA
:100E2000D8F7809590958E0F9F1F08950F931F936D
:100E3000CF93DF93FB01238121FD03C08FEF9FEF51
:100E40002CC022FF16C0468157812481358142176C
:100E5000530744F4A081B1819D012F5F3F4F31833F
:100E600020838C93268137812F5F3F4F37832683E2
:100E700014C08B01EC01FB010084F185E02D099584
:100E8000892BE1F6D80116968D919C9117970196C2
:100E900017969C938E931697CE01DF91CF911F9159
:100EA0000F910895FA01AA27283051F1203181F1DC
:100EB000E8946F936E7F6E5F7F4F8F4F9F4FAF4F62
:100EC000B1E03ED0B4E03CD0670F781F891F9A1F75
:100ED000A11D680F791F8A1F911DA11D6A0F711D29
:100EE000811D911DA11D20D009F468943F912AE035
:100EF000269F11243019305D3193DEF6CF0108951D
:100F0000462F4770405D4193B3E00FD0C9F7F6CF4D
:100F1000462F4F70405D4A3318F0495D31FD405215
:100F2000419302D0A9F7EACFB4E0A69597958795AB
:100F300077956795BA95C9F700976105710508958A
:100F40009B01AC010A2E0694579547953795279536
:100F5000BA95C9F7620F731F841F951FA01D0895CE
:100F60002F923F924F925F926F927F928F929F92B9
:100F7000AF92BF92CF92DF92EF92FF920F931F93A7
:100F8000CF93DF93CDB7DEB7CA1BDB0B0FB6F89458
:100F9000DEBF0FBECDBF09942A88398848885F8498
:100FA0006E847D848C849B84AA84B984C884DF8009
:100FB000EE80FD800C811B81AA81B981CE0FD11DED
:100FC0000FB6F894DEBF0FBECDBFED010895F894C3
:020FD000FFCF51
:0A0FD2002564002D002E00204300CE
:00000001FF
